{
  "_format": "hh-sol-artifact-1",
  "contractName": "DonationTracker",
  "sourceName": "contracts/DonationTracker.sol",
  "abi": [
    {
      "inputs": [],
      "stateMutability": "nonpayable",
      "type": "constructor"
    },
    {
      "anonymous": false,
      "inputs": [
        {
          "indexed": true,
          "internalType": "address",
          "name": "donor",
          "type": "address"
        },
        {
          "indexed": false,
          "internalType": "uint256",
          "name": "amount",
          "type": "uint256"
        },
        {
          "indexed": false,
          "internalType": "string",
          "name": "purpose",
          "type": "string"
        },
        {
          "indexed": false,
          "internalType": "uint256",
          "name": "timestamp",
          "type": "uint256"
        }
      ],
      "name": "DonationReceived",
      "type": "event"
    },
    {
      "anonymous": false,
      "inputs": [
        {
          "indexed": true,
          "internalType": "address",
          "name": "spender",
          "type": "address"
        },
        {
          "indexed": false,
          "internalType": "uint256",
          "name": "amount",
          "type": "uint256"
        },
        {
          "indexed": false,
          "internalType": "string",
          "name": "purpose",
          "type": "string"
        },
        {
          "indexed": false,
          "internalType": "uint256",
          "name": "timestamp",
          "type": "uint256"
        }
      ],
      "name": "FundsWithdrawn",
      "type": "event"
    },
    {
      "inputs": [
        {
          "internalType": "string",
          "name": "purpose",
          "type": "string"
        }
      ],
      "name": "donate",
      "outputs": [],
      "stateMutability": "payable",
      "type": "function"
    },
    {
      "inputs": [
        {
          "internalType": "address",
          "name": "",
          "type": "address"
        }
      ],
      "name": "donorTotal",
      "outputs": [
        {
          "internalType": "uint256",
          "name": "",
          "type": "uint256"
        }
      ],
      "stateMutability": "view",
      "type": "function"
    },
    {
      "inputs": [],
      "name": "getContractBalance",
      "outputs": [
        {
          "internalType": "uint256",
          "name": "",
          "type": "uint256"
        }
      ],
      "stateMutability": "view",
      "type": "function"
    },
    {
      "inputs": [],
      "name": "getDonationCount",
      "outputs": [
        {
          "internalType": "uint256",
          "name": "",
          "type": "uint256"
        }
      ],
      "stateMutability": "view",
      "type": "function"
    },
    {
      "inputs": [
        {
          "internalType": "uint256",
          "name": "index",
          "type": "uint256"
        }
      ],
      "name": "getTransaction",
      "outputs": [
        {
          "internalType": "address",
          "name": "user",
          "type": "address"
        },
        {
          "internalType": "uint256",
          "name": "amount",
          "type": "uint256"
        },
        {
          "internalType": "uint256",
          "name": "timestamp",
          "type": "uint256"
        },
        {
          "internalType": "string",
          "name": "purpose",
          "type": "string"
        },
        {
          "internalType": "enum DonationTracker.TxType",
          "name": "txType",
          "type": "uint8"
        }
      ],
      "stateMutability": "view",
      "type": "function"
    },
    {
      "inputs": [],
      "name": "getTransactions",
      "outputs": [
        {
          "components": [
            {
              "internalType": "address",
              "name": "user",
              "type": "address"
            },
            {
              "internalType": "uint256",
              "name": "amount",
              "type": "uint256"
            },
            {
              "internalType": "uint256",
              "name": "timestamp",
              "type": "uint256"
            },
            {
              "internalType": "string",
              "name": "purpose",
              "type": "string"
            },
            {
              "internalType": "enum DonationTracker.TxType",
              "name": "txType",
              "type": "uint8"
            }
          ],
          "internalType": "struct DonationTracker.Transaction[]",
          "name": "",
          "type": "tuple[]"
        }
      ],
      "stateMutability": "view",
      "type": "function"
    },
    {
      "inputs": [],
      "name": "owner",
      "outputs": [
        {
          "internalType": "address",
          "name": "",
          "type": "address"
        }
      ],
      "stateMutability": "view",
      "type": "function"
    },
    {
      "inputs": [
        {
          "internalType": "string",
          "name": "purpose",
          "type": "string"
        },
        {
          "internalType": "uint256",
          "name": "amount",
          "type": "uint256"
        }
      ],
      "name": "spend",
      "outputs": [],
      "stateMutability": "nonpayable",
      "type": "function"
    },
    {
      "inputs": [],
      "name": "totalDonations",
      "outputs": [
        {
          "internalType": "uint256",
          "name": "",
          "type": "uint256"
        }
      ],
      "stateMutability": "view",
      "type": "function"
    },
    {
      "inputs": [
        {
          "internalType": "uint256",
          "name": "",
          "type": "uint256"
        }
      ],
      "name": "transactions",
      "outputs": [
        {
          "internalType": "address",
          "name": "user",
          "type": "address"
        },
        {
          "internalType": "uint256",
          "name": "amount",
          "type": "uint256"
        },
        {
          "internalType": "uint256",
          "name": "timestamp",
          "type": "uint256"
        },
        {
          "internalType": "string",
          "name": "purpose",
          "type": "string"
        },
        {
          "internalType": "enum DonationTracker.TxType",
          "name": "txType",
          "type": "uint8"
        }
      ],
      "stateMutability": "view",
      "type": "function"
    },
    {
      "stateMutability": "payable",
      "type": "receive"
    }
  ],
  "bytecode": "0x6080604052348015600f57600080fd5b50336000806101000a81548173ffffffffffffffffffffffffffffffffffffffff021916908373ffffffffffffffffffffffffffffffffffffffff160217905550611a418061005f6000396000f3fe6080604052600436106100955760003560e01c806398d87b841161005957806398d87b84146103f55780639ace38c21461041e578063b5aebc801461045f578063de2ed8931461047b578063e55a62a8146104a6576102f1565b806332e1e4d5146102f657806333ea3dc8146103335780636f9fb98a1461037457806383920e901461039f5780638da5cb5b146103ca576102f1565b366102f157600034116100dd576040517f08c379a00000000000000000000000000000000000000000000000000000000081526004016100d490610ef1565b60405180910390fd5b60016040518060a001604052803373ffffffffffffffffffffffffffffffffffffffff1681526020013481526020014281526020016040518060400160405280600981526020017f416e6f6e796d6f7573000000000000000000000000000000000000000000000081525081526020016000600181111561016157610160610f11565b5b815250908060018154018082558091505060019003906000526020600020906005020160009091909190915060008201518160000160006101000a81548173ffffffffffffffffffffffffffffffffffffffff021916908373ffffffffffffffffffffffffffffffffffffffff160217905550602082015181600101556040820151816002015560608201518160030190816101fd9190611190565b5060808201518160040160006101000a81548160ff0219169083600181111561022957610228610f11565b5b0217905550505034600260003373ffffffffffffffffffffffffffffffffffffffff1673ffffffffffffffffffffffffffffffffffffffff168152602001908152602001600020600082825461027f9190611291565b9250508190555034600360008282546102989190611291565b925050819055503373ffffffffffffffffffffffffffffffffffffffff167f2018df2fd138b2916834021281dc1543d08a39c60f392b0bac9d5d60030189f934426040516102e7929190611320565b60405180910390a2005b600080fd5b34801561030257600080fd5b5061031d600480360381019061031891906113c4565b6104d1565b60405161032a91906113f1565b60405180910390f35b34801561033f57600080fd5b5061035a60048036038101906103559190611438565b6104e9565b60405161036b959493929190611530565b60405180910390f35b34801561038057600080fd5b50610389610686565b60405161039691906113f1565b60405180910390f35b3480156103ab57600080fd5b506103b461068e565b6040516103c19190611739565b60405180910390f35b3480156103d657600080fd5b506103df610824565b6040516103ec919061175b565b60405180910390f35b34801561040157600080fd5b5061041c600480360381019061041791906117db565b610848565b005b34801561042a57600080fd5b5061044560048036038101906104409190611438565b610b1a565b604051610456959493929190611530565b60405180910390f35b6104796004803603810190610474919061183b565b610c15565b005b34801561048757600080fd5b50610490610e81565b60405161049d91906113f1565b60405180910390f35b3480156104b257600080fd5b506104bb610e87565b6040516104c891906113f1565b60405180910390f35b60026020528060005260406000206000915090505481565b600080600060606000806001878154811061050757610506611888565b5b90600052602060002090600502016040518060a00160405290816000820160009054906101000a900473ffffffffffffffffffffffffffffffffffffffff1673ffffffffffffffffffffffffffffffffffffffff1673ffffffffffffffffffffffffffffffffffffffff168152602001600182015481526020016002820154815260200160038201805461059a90610fa9565b80601f01602080910402602001604051908101604052809291908181526020018280546105c690610fa9565b80156106135780601f106105e857610100808354040283529160200191610613565b820191906000526020600020905b8154815290600101906020018083116105f657829003601f168201915b505050505081526020016004820160009054906101000a900460ff16600181111561064157610640610f11565b5b600181111561065357610652610f11565b5b81525050905080600001518160200151826040015183606001518460800151955095509550955095505091939590929450565b600047905090565b60606001805480602002602001604051908101604052809291908181526020016000905b8282101561081b57838290600052602060002090600502016040518060a00160405290816000820160009054906101000a900473ffffffffffffffffffffffffffffffffffffffff1673ffffffffffffffffffffffffffffffffffffffff1673ffffffffffffffffffffffffffffffffffffffff168152602001600182015481526020016002820154815260200160038201805461074f90610fa9565b80601f016020809104026020016040519081016040528092919081815260200182805461077b90610fa9565b80156107c85780601f1061079d576101008083540402835291602001916107c8565b820191906000526020600020905b8154815290600101906020018083116107ab57829003601f168201915b505050505081526020016004820160009054906101000a900460ff1660018111156107f6576107f5610f11565b5b600181111561080857610807610f11565b5b81525050815260200190600101906106b2565b50505050905090565b60008054906101000a900473ffffffffffffffffffffffffffffffffffffffff1681565b60008054906101000a900473ffffffffffffffffffffffffffffffffffffffff1673ffffffffffffffffffffffffffffffffffffffff163373ffffffffffffffffffffffffffffffffffffffff16146108d6576040517f08c379a00000000000000000000000000000000000000000000000000000000081526004016108cd90611903565b60405180910390fd5b80471015610919576040517f08c379a00000000000000000000000000000000000000000000000000000000081526004016109109061196f565b60405180910390fd5b3373ffffffffffffffffffffffffffffffffffffffff166108fc829081150290604051600060405180830381858888f1935050505015801561095f573d6000803e3d6000fd5b5060016040518060a001604052803373ffffffffffffffffffffffffffffffffffffffff16815260200183815260200142815260200185858080601f016020809104026020016040519081016040528093929190818152602001838380828437600081840152601f19601f8201169050808301925050505050505081526020016001808111156109f2576109f1610f11565b5b815250908060018154018082558091505060019003906000526020600020906005020160009091909190915060008201518160000160006101000a81548173ffffffffffffffffffffffffffffffffffffffff021916908373ffffffffffffffffffffffffffffffffffffffff16021790555060208201518160010155604082015181600201556060820151816003019081610a8e9190611190565b5060808201518160040160006101000a81548160ff02191690836001811115610aba57610ab9610f11565b5b021790555050503373ffffffffffffffffffffffffffffffffffffffff167fdd454410ae2f6512333f75f98a75dd67fe401010944d4512539f61aaafbeeef382858542604051610b0d94939291906119cb565b60405180910390a2505050565b60018181548110610b2a57600080fd5b90600052602060002090600502016000915090508060000160009054906101000a900473ffffffffffffffffffffffffffffffffffffffff1690806001015490806002015490806003018054610b7f90610fa9565b80601f0160208091040260200160405190810160405280929190818152602001828054610bab90610fa9565b8015610bf85780601f10610bcd57610100808354040283529160200191610bf8565b820191906000526020600020905b815481529060010190602001808311610bdb57829003601f168201915b5050505050908060040160009054906101000a900460ff16905085565b60003411610c58576040517f08c379a0000000000000000000000000000000000000000000000000000000008152600401610c4f90610ef1565b60405180910390fd5b60016040518060a001604052803373ffffffffffffffffffffffffffffffffffffffff16815260200134815260200142815260200184848080601f016020809104026020016040519081016040528093929190818152602001838380828437600081840152601f19601f82011690508083019250505050505050815260200160006001811115610ceb57610cea610f11565b5b815250908060018154018082558091505060019003906000526020600020906005020160009091909190915060008201518160000160006101000a81548173ffffffffffffffffffffffffffffffffffffffff021916908373ffffffffffffffffffffffffffffffffffffffff16021790555060208201518160010155604082015181600201556060820151816003019081610d879190611190565b5060808201518160040160006101000a81548160ff02191690836001811115610db357610db2610f11565b5b0217905550505034600260003373ffffffffffffffffffffffffffffffffffffffff1673ffffffffffffffffffffffffffffffffffffffff1681526020019081526020016000206000828254610e099190611291565b925050819055503460036000828254610e229190611291565b925050819055503373ffffffffffffffffffffffffffffffffffffffff167f2018df2fd138b2916834021281dc1543d08a39c60f392b0bac9d5d60030189f934848442604051610e7594939291906119cb565b60405180910390a25050565b60035481565b6000600180549050905090565b600082825260208201905092915050565b7f446f6e6174696f6e206d7573742062652067726561746572207468616e203000600082015250565b6000610edb601f83610e94565b9150610ee682610ea5565b602082019050919050565b60006020820190508181036000830152610f0a81610ece565b9050919050565b7f4e487b7100000000000000000000000000000000000000000000000000000000600052602160045260246000fd5b600081519050919050565b7f4e487b7100000000000000000000000000000000000000000000000000000000600052604160045260246000fd5b7f4e487b7100000000000000000000000000000000000000000000000000000000600052602260045260246000fd5b60006002820490506001821680610fc157607f821691505b602082108103610fd457610fd3610f7a565b5b50919050565b60008190508160005260206000209050919050565b60006020601f8301049050919050565b600082821b905092915050565b60006008830261103c7fffffffffffffffffffffffffffffffffffffffffffffffffffffffffffffffff82610fff565b6110468683610fff565b95508019841693508086168417925050509392505050565b6000819050919050565b6000819050919050565b600061108d6110886110838461105e565b611068565b61105e565b9050919050565b6000819050919050565b6110a783611072565b6110bb6110b382611094565b84845461100c565b825550505050565b600090565b6110d06110c3565b6110db81848461109e565b505050565b5b818110156110ff576110f46000826110c8565b6001810190506110e1565b5050565b601f8211156111445761111581610fda565b61111e84610fef565b8101602085101561112d578190505b61114161113985610fef565b8301826110e0565b50505b505050565b600082821c905092915050565b600061116760001984600802611149565b1980831691505092915050565b60006111808383611156565b9150826002028217905092915050565b61119982610f40565b67ffffffffffffffff8111156111b2576111b1610f4b565b5b6111bc8254610fa9565b6111c7828285611103565b600060209050601f8311600181146111fa57600084156111e8578287015190505b6111f28582611174565b86555061125a565b601f19841661120886610fda565b60005b828110156112305784890151825560018201915060208501945060208101905061120b565b8683101561124d5784890151611249601f891682611156565b8355505b6001600288020188555050505b505050505050565b7f4e487b7100000000000000000000000000000000000000000000000000000000600052601160045260246000fd5b600061129c8261105e565b91506112a78361105e565b92508282019050808211156112bf576112be611262565b5b92915050565b6112ce8161105e565b82525050565b7f416e6f6e796d6f75730000000000000000000000000000000000000000000000600082015250565b600061130a600983610e94565b9150611315826112d4565b602082019050919050565b600060608201905061133560008301856112c5565b8181036020830152611346816112fd565b905061135560408301846112c5565b9392505050565b600080fd5b600080fd5b600073ffffffffffffffffffffffffffffffffffffffff82169050919050565b600061139182611366565b9050919050565b6113a181611386565b81146113ac57600080fd5b50565b6000813590506113be81611398565b92915050565b6000602082840312156113da576113d961135c565b5b60006113e8848285016113af565b91505092915050565b600060208201905061140660008301846112c5565b92915050565b6114158161105e565b811461142057600080fd5b50565b6000813590506114328161140c565b92915050565b60006020828403121561144e5761144d61135c565b5b600061145c84828501611423565b91505092915050565b61146e81611386565b82525050565b60005b83811015611492578082015181840152602081019050611477565b60008484015250505050565b6000601f19601f8301169050919050565b60006114ba82610f40565b6114c48185610e94565b93506114d4818560208601611474565b6114dd8161149e565b840191505092915050565b600281106114f9576114f8610f11565b5b50565b600081905061150a826114e8565b919050565b600061151a826114fc565b9050919050565b61152a8161150f565b82525050565b600060a0820190506115456000830188611465565b61155260208301876112c5565b61155f60408301866112c5565b818103606083015261157181856114af565b90506115806080830184611521565b9695505050505050565b600081519050919050565b600082825260208201905092915050565b6000819050602082019050919050565b6115bf81611386565b82525050565b6115ce8161105e565b82525050565b600082825260208201905092915050565b60006115f082610f40565b6115fa81856115d4565b935061160a818560208601611474565b6116138161149e565b840191505092915050565b6116278161150f565b82525050565b600060a08301600083015161164560008601826115b6565b50602083015161165860208601826115c5565b50604083015161166b60408601826115c5565b506060830151848203606086015261168382826115e5565b9150506080830151611698608086018261161e565b508091505092915050565b60006116af838361162d565b905092915050565b6000602082019050919050565b60006116cf8261158a565b6116d98185611595565b9350836020820285016116eb856115a6565b8060005b85811015611727578484038952815161170885826116a3565b9450611713836116b7565b925060208a019950506001810190506116ef565b50829750879550505050505092915050565b6000602082019050818103600083015261175381846116c4565b905092915050565b60006020820190506117706000830184611465565b92915050565b600080fd5b600080fd5b600080fd5b60008083601f84011261179b5761179a611776565b5b8235905067ffffffffffffffff8111156117b8576117b761177b565b5b6020830191508360018202830111156117d4576117d3611780565b5b9250929050565b6000806000604084860312156117f4576117f361135c565b5b600084013567ffffffffffffffff81111561181257611811611361565b5b61181e86828701611785565b9350935050602061183186828701611423565b9150509250925092565b600080602083850312156118525761185161135c565b5b600083013567ffffffffffffffff8111156118705761186f611361565b5b61187c85828601611785565b92509250509250929050565b7f4e487b7100000000000000000000000000000000000000000000000000000000600052603260045260246000fd5b7f4f6e6c79204e474f2f6f776e65722063616e207370656e640000000000000000600082015250565b60006118ed601883610e94565b91506118f8826118b7565b602082019050919050565b6000602082019050818103600083015261191c816118e0565b9050919050565b7f496e73756666696369656e742062616c616e6365000000000000000000000000600082015250565b6000611959601483610e94565b915061196482611923565b602082019050919050565b600060208201905081810360008301526119888161194c565b9050919050565b82818337600083830152505050565b60006119aa8385610e94565b93506119b783858461198f565b6119c08361149e565b840190509392505050565b60006060820190506119e060008301876112c5565b81810360208301526119f381858761199e565b9050611a0260408301846112c5565b9594505050505056fea2646970667358221220b2248f9dc0f945af4b8e4ffaff7135b197234e492fdc9d1fd3fda37bb46d12c564736f6c634300081c0033",
  "linkReferences": {},
  "deployedLinkReferences": {}
}