{"contracts/DonationTracker.sol":{"DonationTracker":{"abi":[{"inputs":[],"stateMutability":"nonpayable","type":"constructor"},{"anonymous":false,"inputs":[{"indexed":true,"internalType":"address","name":"donor","type":"address"},{"indexed":false,"internalType":"uint256","name":"amount","type":"uint256"},{"indexed":false,"internalType":"string","name":"purpose","type":"string"},{"indexed":false,"internalType":"uint256","name":"timestamp","type":"uint256"}],"name":"DonationReceived","type":"event"},{"anonymous":false,"inputs":[{"indexed":true,"internalType":"address","name":"spender","type":"address"},{"indexed":false,"internalType":"uint256","name":"amount","type":"uint256"},{"indexed":false,"internalType":"string","name":"purpose","type":"string"},{"indexed":false,"internalType":"uint256","name":"timestamp","type":"uint256"}],"name":"FundsWithdrawn","type":"event"},{"inputs":[{"internalType":"string","name":"purpose","type":"string"}],"name":"donate","outputs":[],"stateMutability":"payable","type":"function"},{"inputs":[{"internalType":"address","name":"","type":"address"}],"name":"donorTotal","outputs":[{"internalType":"uint256","name":"","type":"uint256"}],"stateMutability":"view","type":"function"},{"inputs":[],"name":"getContractBalance","outputs":[{"internalType":"uint256","name":"","type":"uint256"}],"stateMutability":"view","type":"function"},{"inputs":[],"name":"getTransactions","outputs":[{"components":[{"internalType":"address","name":"user","type":"address"},{"internalType":"uint256","name":"amount","type":"uint256"},{"internalType":"uint256","name":"timestamp","type":"uint256"},{"internalType":"string","name":"purpose","type":"string"},{"internalType":"enum DonationTracker.TxType","name":"txType","type":"uint8"}],"internalType":"struct DonationTracker.Transaction[]","name":"","type":"tuple[]"}],"stateMutability":"view","type":"function"},{"inputs":[],"name":"owner","outputs":[{"internalType":"address","name":"","type":"address"}],"stateMutability":"view","type":"function"},{"inputs":[{"internalType":"string","name":"purpose","type":"string"},{"internalType":"uint256","name":"amount","type":"uint256"}],"name":"spend","outputs":[],"stateMutability":"nonpayable","type":"function"},{"inputs":[],"name":"totalDonations","outputs":[{"internalType":"uint256","name":"","type":"uint256"}],"stateMutability":"view","type":"function"},{"inputs":[{"internalType":"uint256","name":"","type":"uint256"}],"name":"transactions","outputs":[{"internalType":"address","name":"user","type":"address"},{"internalType":"uint256","name":"amount","type":"uint256"},{"internalType":"uint256","name":"timestamp","type":"uint256"},{"internalType":"string","name":"purpose","type":"string"},{"internalType":"enum DonationTracker.TxType","name":"txType","type":"uint8"}],"stateMutability":"view","type":"function"}],"evm":{"bytecode":{"linkReferences":{},"object":"6080604052348015600f57600080fd5b50336000806101000a81548173ffffffffffffffffffffffffffffffffffffffff021916908373ffffffffffffffffffffffffffffffffffffffff1602179055506114fe8061005f6000396000f3fe60806040526004361061007b5760003560e01c806398d87b841161004e57806398d87b841461013e5780639ace38c214610167578063b5aebc80146101a8578063de2ed893146101c45761007b565b806332e1e4d5146100805780636f9fb98a146100bd57806383920e90146100e85780638da5cb5b14610113575b600080fd5b34801561008c57600080fd5b506100a760048036038101906100a29190610a70565b6101ef565b6040516100b49190610ab6565b60405180910390f35b3480156100c957600080fd5b506100d2610207565b6040516100df9190610ab6565b60405180910390f35b3480156100f457600080fd5b506100fd61020f565b60405161010a9190610d2e565b60405180910390f35b34801561011f57600080fd5b506101286103a5565b6040516101359190610d5f565b60405180910390f35b34801561014a57600080fd5b5061016560048036038101906101609190610e0b565b6103c9565b005b34801561017357600080fd5b5061018e60048036038101906101899190610e6b565b61069b565b60405161019f959493929190610ef1565b60405180910390f35b6101c260048036038101906101bd9190610f4b565b610796565b005b3480156101d057600080fd5b506101d9610a02565b6040516101e69190610ab6565b60405180910390f35b60026020528060005260406000206000915090505481565b600047905090565b60606001805480602002602001604051908101604052809291908181526020016000905b8282101561039c57838290600052602060002090600502016040518060a00160405290816000820160009054906101000a900473ffffffffffffffffffffffffffffffffffffffff1673ffffffffffffffffffffffffffffffffffffffff1673ffffffffffffffffffffffffffffffffffffffff16815260200160018201548152602001600282015481526020016003820180546102d090610fc7565b80601f01602080910402602001604051908101604052809291908181526020018280546102fc90610fc7565b80156103495780601f1061031e57610100808354040283529160200191610349565b820191906000526020600020905b81548152906001019060200180831161032c57829003601f168201915b505050505081526020016004820160009054906101000a900460ff16600181111561037757610376610bab565b5b600181111561038957610388610bab565b5b8152505081526020019060010190610233565b50505050905090565b60008054906101000a900473ffffffffffffffffffffffffffffffffffffffff1681565b60008054906101000a900473ffffffffffffffffffffffffffffffffffffffff1673ffffffffffffffffffffffffffffffffffffffff163373ffffffffffffffffffffffffffffffffffffffff1614610457576040517f08c379a000000000000000000000000000000000000000000000000000000000815260040161044e90611044565b60405180910390fd5b8047101561049a576040517f08c379a0000000000000000000000000000000000000000000000000000000008152600401610491906110b0565b60405180910390fd5b3373ffffffffffffffffffffffffffffffffffffffff166108fc829081150290604051600060405180830381858888f193505050501580156104e0573d6000803e3d6000fd5b5060016040518060a001604052803373ffffffffffffffffffffffffffffffffffffffff16815260200183815260200142815260200185858080601f016020809104026020016040519081016040528093929190818152602001838380828437600081840152601f19601f82011690508083019250505050505050815260200160018081111561057357610572610bab565b5b815250908060018154018082558091505060019003906000526020600020906005020160009091909190915060008201518160000160006101000a81548173ffffffffffffffffffffffffffffffffffffffff021916908373ffffffffffffffffffffffffffffffffffffffff1602179055506020820151816001015560408201518160020155606082015181600301908161060f91906112ab565b5060808201518160040160006101000a81548160ff0219169083600181111561063b5761063a610bab565b5b021790555050503373ffffffffffffffffffffffffffffffffffffffff167fdd454410ae2f6512333f75f98a75dd67fe401010944d4512539f61aaafbeeef38285854260405161068e94939291906113b9565b60405180910390a2505050565b600181815481106106ab57600080fd5b90600052602060002090600502016000915090508060000160009054906101000a900473ffffffffffffffffffffffffffffffffffffffff169080600101549080600201549080600301805461070090610fc7565b80601f016020809104026020016040519081016040528092919081815260200182805461072c90610fc7565b80156107795780601f1061074e57610100808354040283529160200191610779565b820191906000526020600020905b81548152906001019060200180831161075c57829003601f168201915b5050505050908060040160009054906101000a900460ff16905085565b600034116107d9576040517f08c379a00000000000000000000000000000000000000000000000000000000081526004016107d090611445565b60405180910390fd5b60016040518060a001604052803373ffffffffffffffffffffffffffffffffffffffff16815260200134815260200142815260200184848080601f016020809104026020016040519081016040528093929190818152602001838380828437600081840152601f19601f8201169050808301925050505050505081526020016000600181111561086c5761086b610bab565b5b815250908060018154018082558091505060019003906000526020600020906005020160009091909190915060008201518160000160006101000a81548173ffffffffffffffffffffffffffffffffffffffff021916908373ffffffffffffffffffffffffffffffffffffffff1602179055506020820151816001015560408201518160020155606082015181600301908161090891906112ab565b5060808201518160040160006101000a81548160ff0219169083600181111561093457610933610bab565b5b0217905550505034600260003373ffffffffffffffffffffffffffffffffffffffff1673ffffffffffffffffffffffffffffffffffffffff168152602001908152602001600020600082825461098a9190611494565b9250508190555034600360008282546109a39190611494565b925050819055503373ffffffffffffffffffffffffffffffffffffffff167f2018df2fd138b2916834021281dc1543d08a39c60f392b0bac9d5d60030189f9348484426040516109f694939291906113b9565b60405180910390a25050565b60035481565b600080fd5b600080fd5b600073ffffffffffffffffffffffffffffffffffffffff82169050919050565b6000610a3d82610a12565b9050919050565b610a4d81610a32565b8114610a5857600080fd5b50565b600081359050610a6a81610a44565b92915050565b600060208284031215610a8657610a85610a08565b5b6000610a9484828501610a5b565b91505092915050565b6000819050919050565b610ab081610a9d565b82525050565b6000602082019050610acb6000830184610aa7565b92915050565b600081519050919050565b600082825260208201905092915050565b6000819050602082019050919050565b610b0681610a32565b82525050565b610b1581610a9d565b82525050565b600081519050919050565b600082825260208201905092915050565b60005b83811015610b55578082015181840152602081019050610b3a565b60008484015250505050565b6000601f19601f8301169050919050565b6000610b7d82610b1b565b610b878185610b26565b9350610b97818560208601610b37565b610ba081610b61565b840191505092915050565b7f4e487b7100000000000000000000000000000000000000000000000000000000600052602160045260246000fd5b60028110610beb57610bea610bab565b5b50565b6000819050610bfc82610bda565b919050565b6000610c0c82610bee565b9050919050565b610c1c81610c01565b82525050565b600060a083016000830151610c3a6000860182610afd565b506020830151610c4d6020860182610b0c565b506040830151610c606040860182610b0c565b5060608301518482036060860152610c788282610b72565b9150506080830151610c8d6080860182610c13565b508091505092915050565b6000610ca48383610c22565b905092915050565b6000602082019050919050565b6000610cc482610ad1565b610cce8185610adc565b935083602082028501610ce085610aed565b8060005b85811015610d1c5784840389528151610cfd8582610c98565b9450610d0883610cac565b925060208a01995050600181019050610ce4565b50829750879550505050505092915050565b60006020820190508181036000830152610d488184610cb9565b905092915050565b610d5981610a32565b82525050565b6000602082019050610d746000830184610d50565b92915050565b600080fd5b600080fd5b600080fd5b60008083601f840112610d9f57610d9e610d7a565b5b8235905067ffffffffffffffff811115610dbc57610dbb610d7f565b5b602083019150836001820283011115610dd857610dd7610d84565b5b9250929050565b610de881610a9d565b8114610df357600080fd5b50565b600081359050610e0581610ddf565b92915050565b600080600060408486031215610e2457610e23610a08565b5b600084013567ffffffffffffffff811115610e4257610e41610a0d565b5b610e4e86828701610d89565b93509350506020610e6186828701610df6565b9150509250925092565b600060208284031215610e8157610e80610a08565b5b6000610e8f84828501610df6565b91505092915050565b600082825260208201905092915050565b6000610eb482610b1b565b610ebe8185610e98565b9350610ece818560208601610b37565b610ed781610b61565b840191505092915050565b610eeb81610c01565b82525050565b600060a082019050610f066000830188610d50565b610f136020830187610aa7565b610f206040830186610aa7565b8181036060830152610f328185610ea9565b9050610f416080830184610ee2565b9695505050505050565b60008060208385031215610f6257610f61610a08565b5b600083013567ffffffffffffffff811115610f8057610f7f610a0d565b5b610f8c85828601610d89565b92509250509250929050565b7f4e487b7100000000000000000000000000000000000000000000000000000000600052602260045260246000fd5b60006002820490506001821680610fdf57607f821691505b602082108103610ff257610ff1610f98565b5b50919050565b7f4f6e6c79204e474f2f6f776e65722063616e207370656e640000000000000000600082015250565b600061102e601883610e98565b915061103982610ff8565b602082019050919050565b6000602082019050818103600083015261105d81611021565b9050919050565b7f496e73756666696369656e742062616c616e6365000000000000000000000000600082015250565b600061109a601483610e98565b91506110a582611064565b602082019050919050565b600060208201905081810360008301526110c98161108d565b9050919050565b7f4e487b7100000000000000000000000000000000000000000000000000000000600052604160045260246000fd5b60008190508160005260206000209050919050565b60006020601f8301049050919050565b600082821b905092915050565b6000600883026111617fffffffffffffffffffffffffffffffffffffffffffffffffffffffffffffffff82611124565b61116b8683611124565b95508019841693508086168417925050509392505050565b6000819050919050565b60006111a86111a361119e84610a9d565b611183565b610a9d565b9050919050565b6000819050919050565b6111c28361118d565b6111d66111ce826111af565b848454611131565b825550505050565b600090565b6111eb6111de565b6111f68184846111b9565b505050565b5b8181101561121a5761120f6000826111e3565b6001810190506111fc565b5050565b601f82111561125f57611230816110ff565b61123984611114565b81016020851015611248578190505b61125c61125485611114565b8301826111fb565b50505b505050565b600082821c905092915050565b600061128260001984600802611264565b1980831691505092915050565b600061129b8383611271565b9150826002028217905092915050565b6112b482610b1b565b67ffffffffffffffff8111156112cd576112cc6110d0565b5b6112d78254610fc7565b6112e282828561121e565b600060209050601f8311600181146113155760008415611303578287015190505b61130d858261128f565b865550611375565b601f198416611323866110ff565b60005b8281101561134b57848901518255600182019150602085019450602081019050611326565b868310156113685784890151611364601f891682611271565b8355505b6001600288020188555050505b505050505050565b82818337600083830152505050565b60006113988385610e98565b93506113a583858461137d565b6113ae83610b61565b840190509392505050565b60006060820190506113ce6000830187610aa7565b81810360208301526113e181858761138c565b90506113f06040830184610aa7565b95945050505050565b7f446f6e6174696f6e206d7573742062652067726561746572207468616e203000600082015250565b600061142f601f83610e98565b915061143a826113f9565b602082019050919050565b6000602082019050818103600083015261145e81611422565b9050919050565b7f4e487b7100000000000000000000000000000000000000000000000000000000600052601160045260246000fd5b600061149f82610a9d565b91506114aa83610a9d565b92508282019050808211156114c2576114c1611465565b5b9291505056fea26469706673582212201d7af1a63dec6800dac8000a9741e01e7aab9d4d42413e7e6a24e5063d861fca64736f6c634300081c0033","opcodes":"PUSH1 0x80 PUSH1 0x40 MSTORE CALLVALUE DUP1 ISZERO PUSH1 0xF JUMPI PUSH1 0x0 DUP1 REVERT JUMPDEST POP CALLER PUSH1 0x0 DUP1 PUSH2 0x100 EXP DUP2 SLOAD DUP2 PUSH20 0xFFFFFFFFFFFFFFFFFFFFFFFFFFFFFFFFFFFFFFFF MUL NOT AND SWAP1 DUP4 PUSH20 0xFFFFFFFFFFFFFFFFFFFFFFFFFFFFFFFFFFFFFFFF AND MUL OR SWAP1 SSTORE POP PUSH2 0x14FE DUP1 PUSH2 0x5F PUSH1 0x0 CODECOPY PUSH1 0x0 RETURN INVALID PUSH1 0x80 PUSH1 0x40 MSTORE PUSH1 0x4 CALLDATASIZE LT PUSH2 0x7B JUMPI PUSH1 0x0 CALLDATALOAD PUSH1 0xE0 SHR DUP1 PUSH4 0x98D87B84 GT PUSH2 0x4E JUMPI DUP1 PUSH4 0x98D87B84 EQ PUSH2 0x13E JUMPI DUP1 PUSH4 0x9ACE38C2 EQ PUSH2 0x167 JUMPI DUP1 PUSH4 0xB5AEBC80 EQ PUSH2 0x1A8 JUMPI DUP1 PUSH4 0xDE2ED893 EQ PUSH2 0x1C4 JUMPI PUSH2 0x7B JUMP JUMPDEST DUP1 PUSH4 0x32E1E4D5 EQ PUSH2 0x80 JUMPI DUP1 PUSH4 0x6F9FB98A EQ PUSH2 0xBD JUMPI DUP1 PUSH4 0x83920E90 EQ PUSH2 0xE8 JUMPI DUP1 PUSH4 0x8DA5CB5B EQ PUSH2 0x113 JUMPI JUMPDEST PUSH1 0x0 DUP1 REVERT JUMPDEST CALLVALUE DUP1 ISZERO PUSH2 0x8C JUMPI PUSH1 0x0 DUP1 REVERT JUMPDEST POP PUSH2 0xA7 PUSH1 0x4 DUP1 CALLDATASIZE SUB DUP2 ADD SWAP1 PUSH2 0xA2 SWAP2 SWAP1 PUSH2 0xA70 JUMP JUMPDEST PUSH2 0x1EF JUMP JUMPDEST PUSH1 0x40 MLOAD PUSH2 0xB4 SWAP2 SWAP1 PUSH2 0xAB6 JUMP JUMPDEST PUSH1 0x40 MLOAD DUP1 SWAP2 SUB SWAP1 RETURN JUMPDEST CALLVALUE DUP1 ISZERO PUSH2 0xC9 JUMPI PUSH1 0x0 DUP1 REVERT JUMPDEST POP PUSH2 0xD2 PUSH2 0x207 JUMP JUMPDEST PUSH1 0x40 MLOAD PUSH2 0xDF SWAP2 SWAP1 PUSH2 0xAB6 JUMP JUMPDEST PUSH1 0x40 MLOAD DUP1 SWAP2 SUB SWAP1 RETURN JUMPDEST CALLVALUE DUP1 ISZERO PUSH2 0xF4 JUMPI PUSH1 0x0 DUP1 REVERT JUMPDEST POP PUSH2 0xFD PUSH2 0x20F JUMP JUMPDEST PUSH1 0x40 MLOAD PUSH2 0x10A SWAP2 SWAP1 PUSH2 0xD2E JUMP JUMPDEST PUSH1 0x40 MLOAD DUP1 SWAP2 SUB SWAP1 RETURN JUMPDEST CALLVALUE DUP1 ISZERO PUSH2 0x11F JUMPI PUSH1 0x0 DUP1 REVERT JUMPDEST POP PUSH2 0x128 PUSH2 0x3A5 JUMP JUMPDEST PUSH1 0x40 MLOAD PUSH2 0x135 SWAP2 SWAP1 PUSH2 0xD5F JUMP JUMPDEST PUSH1 0x40 MLOAD DUP1 SWAP2 SUB SWAP1 RETURN JUMPDEST CALLVALUE DUP1 ISZERO PUSH2 0x14A JUMPI PUSH1 0x0 DUP1 REVERT JUMPDEST POP PUSH2 0x165 PUSH1 0x4 DUP1 CALLDATASIZE SUB DUP2 ADD SWAP1 PUSH2 0x160 SWAP2 SWAP1 PUSH2 0xE0B JUMP JUMPDEST PUSH2 0x3C9 JUMP JUMPDEST STOP JUMPDEST CALLVALUE DUP1 ISZERO PUSH2 0x173 JUMPI PUSH1 0x0 DUP1 REVERT JUMPDEST POP PUSH2 0x18E PUSH1 0x4 DUP1 CALLDATASIZE SUB DUP2 ADD SWAP1 PUSH2 0x189 SWAP2 SWAP1 PUSH2 0xE6B JUMP JUMPDEST PUSH2 0x69B JUMP JUMPDEST PUSH1 0x40 MLOAD PUSH2 0x19F SWAP6 SWAP5 SWAP4 SWAP3 SWAP2 SWAP1 PUSH2 0xEF1 JUMP JUMPDEST PUSH1 0x40 MLOAD DUP1 SWAP2 SUB SWAP1 RETURN JUMPDEST PUSH2 0x1C2 PUSH1 0x4 DUP1 CALLDATASIZE SUB DUP2 ADD SWAP1 PUSH2 0x1BD SWAP2 SWAP1 PUSH2 0xF4B JUMP JUMPDEST PUSH2 0x796 JUMP JUMPDEST STOP JUMPDEST CALLVALUE DUP1 ISZERO PUSH2 0x1D0 JUMPI PUSH1 0x0 DUP1 REVERT JUMPDEST POP PUSH2 0x1D9 PUSH2 0xA02 JUMP JUMPDEST PUSH1 0x40 MLOAD PUSH2 0x1E6 SWAP2 SWAP1 PUSH2 0xAB6 JUMP JUMPDEST PUSH1 0x40 MLOAD DUP1 SWAP2 SUB SWAP1 RETURN JUMPDEST PUSH1 0x2 PUSH1 0x20 MSTORE DUP1 PUSH1 0x0 MSTORE PUSH1 0x40 PUSH1 0x0 KECCAK256 PUSH1 0x0 SWAP2 POP SWAP1 POP SLOAD DUP2 JUMP JUMPDEST PUSH1 0x0 SELFBALANCE SWAP1 POP SWAP1 JUMP JUMPDEST PUSH1 0x60 PUSH1 0x1 DUP1 SLOAD DUP1 PUSH1 0x20 MUL PUSH1 0x20 ADD PUSH1 0x40 MLOAD SWAP1 DUP2 ADD PUSH1 0x40 MSTORE DUP1 SWAP3 SWAP2 SWAP1 DUP2 DUP2 MSTORE PUSH1 0x20 ADD PUSH1 0x0 SWAP1 JUMPDEST DUP3 DUP3 LT ISZERO PUSH2 0x39C JUMPI DUP4 DUP3 SWAP1 PUSH1 0x0 MSTORE PUSH1 0x20 PUSH1 0x0 KECCAK256 SWAP1 PUSH1 0x5 MUL ADD PUSH1 0x40 MLOAD DUP1 PUSH1 0xA0 ADD PUSH1 0x40 MSTORE SWAP1 DUP2 PUSH1 0x0 DUP3 ADD PUSH1 0x0 SWAP1 SLOAD SWAP1 PUSH2 0x100 EXP SWAP1 DIV PUSH20 0xFFFFFFFFFFFFFFFFFFFFFFFFFFFFFFFFFFFFFFFF AND PUSH20 0xFFFFFFFFFFFFFFFFFFFFFFFFFFFFFFFFFFFFFFFF AND PUSH20 0xFFFFFFFFFFFFFFFFFFFFFFFFFFFFFFFFFFFFFFFF AND DUP2 MSTORE PUSH1 0x20 ADD PUSH1 0x1 DUP3 ADD SLOAD DUP2 MSTORE PUSH1 0x20 ADD PUSH1 0x2 DUP3 ADD SLOAD DUP2 MSTORE PUSH1 0x20 ADD PUSH1 0x3 DUP3 ADD DUP1 SLOAD PUSH2 0x2D0 SWAP1 PUSH2 0xFC7 JUMP JUMPDEST DUP1 PUSH1 0x1F ADD PUSH1 0x20 DUP1 SWAP2 DIV MUL PUSH1 0x20 ADD PUSH1 0x40 MLOAD SWAP1 DUP2 ADD PUSH1 0x40 MSTORE DUP1 SWAP3 SWAP2 SWAP1 DUP2 DUP2 MSTORE PUSH1 0x20 ADD DUP3 DUP1 SLOAD PUSH2 0x2FC SWAP1 PUSH2 0xFC7 JUMP JUMPDEST DUP1 ISZERO PUSH2 0x349 JUMPI DUP1 PUSH1 0x1F LT PUSH2 0x31E JUMPI PUSH2 0x100 DUP1 DUP4 SLOAD DIV MUL DUP4 MSTORE SWAP2 PUSH1 0x20 ADD SWAP2 PUSH2 0x349 JUMP JUMPDEST DUP3 ADD SWAP2 SWAP1 PUSH1 0x0 MSTORE PUSH1 0x20 PUSH1 0x0 KECCAK256 SWAP1 JUMPDEST DUP2 SLOAD DUP2 MSTORE SWAP1 PUSH1 0x1 ADD SWAP1 PUSH1 0x20 ADD DUP1 DUP4 GT PUSH2 0x32C JUMPI DUP3 SWAP1 SUB PUSH1 0x1F AND DUP3 ADD SWAP2 JUMPDEST POP POP POP POP POP DUP2 MSTORE PUSH1 0x20 ADD PUSH1 0x4 DUP3 ADD PUSH1 0x0 SWAP1 SLOAD SWAP1 PUSH2 0x100 EXP SWAP1 DIV PUSH1 0xFF AND PUSH1 0x1 DUP2 GT ISZERO PUSH2 0x377 JUMPI PUSH2 0x376 PUSH2 0xBAB JUMP JUMPDEST JUMPDEST PUSH1 0x1 DUP2 GT ISZERO PUSH2 0x389 JUMPI PUSH2 0x388 PUSH2 0xBAB JUMP JUMPDEST JUMPDEST DUP2 MSTORE POP POP DUP2 MSTORE PUSH1 0x20 ADD SWAP1 PUSH1 0x1 ADD SWAP1 PUSH2 0x233 JUMP JUMPDEST POP POP POP POP SWAP1 POP SWAP1 JUMP JUMPDEST PUSH1 0x0 DUP1 SLOAD SWAP1 PUSH2 0x100 EXP SWAP1 DIV PUSH20 0xFFFFFFFFFFFFFFFFFFFFFFFFFFFFFFFFFFFFFFFF AND DUP2 JUMP JUMPDEST PUSH1 0x0 DUP1 SLOAD SWAP1 PUSH2 0x100 EXP SWAP1 DIV PUSH20 0xFFFFFFFFFFFFFFFFFFFFFFFFFFFFFFFFFFFFFFFF AND PUSH20 0xFFFFFFFFFFFFFFFFFFFFFFFFFFFFFFFFFFFFFFFF AND CALLER PUSH20 0xFFFFFFFFFFFFFFFFFFFFFFFFFFFFFFFFFFFFFFFF AND EQ PUSH2 0x457 JUMPI PUSH1 0x40 MLOAD PUSH32 0x8C379A000000000000000000000000000000000000000000000000000000000 DUP2 MSTORE PUSH1 0x4 ADD PUSH2 0x44E SWAP1 PUSH2 0x1044 JUMP JUMPDEST PUSH1 0x40 MLOAD DUP1 SWAP2 SUB SWAP1 REVERT JUMPDEST DUP1 SELFBALANCE LT ISZERO PUSH2 0x49A JUMPI PUSH1 0x40 MLOAD PUSH32 0x8C379A000000000000000000000000000000000000000000000000000000000 DUP2 MSTORE PUSH1 0x4 ADD PUSH2 0x491 SWAP1 PUSH2 0x10B0 JUMP JUMPDEST PUSH1 0x40 MLOAD DUP1 SWAP2 SUB SWAP1 REVERT JUMPDEST CALLER PUSH20 0xFFFFFFFFFFFFFFFFFFFFFFFFFFFFFFFFFFFFFFFF AND PUSH2 0x8FC DUP3 SWAP1 DUP2 ISZERO MUL SWAP1 PUSH1 0x40 MLOAD PUSH1 0x0 PUSH1 0x40 MLOAD DUP1 DUP4 SUB DUP2 DUP6 DUP9 DUP9 CALL SWAP4 POP POP POP POP ISZERO DUP1 ISZERO PUSH2 0x4E0 JUMPI RETURNDATASIZE PUSH1 0x0 DUP1 RETURNDATACOPY RETURNDATASIZE PUSH1 0x0 REVERT JUMPDEST POP PUSH1 0x1 PUSH1 0x40 MLOAD DUP1 PUSH1 0xA0 ADD PUSH1 0x40 MSTORE DUP1 CALLER PUSH20 0xFFFFFFFFFFFFFFFFFFFFFFFFFFFFFFFFFFFFFFFF AND DUP2 MSTORE PUSH1 0x20 ADD DUP4 DUP2 MSTORE PUSH1 0x20 ADD TIMESTAMP DUP2 MSTORE PUSH1 0x20 ADD DUP6 DUP6 DUP1 DUP1 PUSH1 0x1F ADD PUSH1 0x20 DUP1 SWAP2 DIV MUL PUSH1 0x20 ADD PUSH1 0x40 MLOAD SWAP1 DUP2 ADD PUSH1 0x40 MSTORE DUP1 SWAP4 SWAP3 SWAP2 SWAP1 DUP2 DUP2 MSTORE PUSH1 0x20 ADD DUP4 DUP4 DUP1 DUP3 DUP5 CALLDATACOPY PUSH1 0x0 DUP2 DUP5 ADD MSTORE PUSH1 0x1F NOT PUSH1 0x1F DUP3 ADD AND SWAP1 POP DUP1 DUP4 ADD SWAP3 POP POP POP POP POP POP POP DUP2 MSTORE PUSH1 0x20 ADD PUSH1 0x1 DUP1 DUP2 GT ISZERO PUSH2 0x573 JUMPI PUSH2 0x572 PUSH2 0xBAB JUMP JUMPDEST JUMPDEST DUP2 MSTORE POP SWAP1 DUP1 PUSH1 0x1 DUP2 SLOAD ADD DUP1 DUP3 SSTORE DUP1 SWAP2 POP POP PUSH1 0x1 SWAP1 SUB SWAP1 PUSH1 0x0 MSTORE PUSH1 0x20 PUSH1 0x0 KECCAK256 SWAP1 PUSH1 0x5 MUL ADD PUSH1 0x0 SWAP1 SWAP2 SWAP1 SWAP2 SWAP1 SWAP2 POP PUSH1 0x0 DUP3 ADD MLOAD DUP2 PUSH1 0x0 ADD PUSH1 0x0 PUSH2 0x100 EXP DUP2 SLOAD DUP2 PUSH20 0xFFFFFFFFFFFFFFFFFFFFFFFFFFFFFFFFFFFFFFFF MUL NOT AND SWAP1 DUP4 PUSH20 0xFFFFFFFFFFFFFFFFFFFFFFFFFFFFFFFFFFFFFFFF AND MUL OR SWAP1 SSTORE POP PUSH1 0x20 DUP3 ADD MLOAD DUP2 PUSH1 0x1 ADD SSTORE PUSH1 0x40 DUP3 ADD MLOAD DUP2 PUSH1 0x2 ADD SSTORE PUSH1 0x60 DUP3 ADD MLOAD DUP2 PUSH1 0x3 ADD SWAP1 DUP2 PUSH2 0x60F SWAP2 SWAP1 PUSH2 0x12AB JUMP JUMPDEST POP PUSH1 0x80 DUP3 ADD MLOAD DUP2 PUSH1 0x4 ADD PUSH1 0x0 PUSH2 0x100 EXP DUP2 SLOAD DUP2 PUSH1 0xFF MUL NOT AND SWAP1 DUP4 PUSH1 0x1 DUP2 GT ISZERO PUSH2 0x63B JUMPI PUSH2 0x63A PUSH2 0xBAB JUMP JUMPDEST JUMPDEST MUL OR SWAP1 SSTORE POP POP POP CALLER PUSH20 0xFFFFFFFFFFFFFFFFFFFFFFFFFFFFFFFFFFFFFFFF AND PUSH32 0xDD454410AE2F6512333F75F98A75DD67FE401010944D4512539F61AAAFBEEEF3 DUP3 DUP6 DUP6 TIMESTAMP PUSH1 0x40 MLOAD PUSH2 0x68E SWAP5 SWAP4 SWAP3 SWAP2 SWAP1 PUSH2 0x13B9 JUMP JUMPDEST PUSH1 0x40 MLOAD DUP1 SWAP2 SUB SWAP1 LOG2 POP POP POP JUMP JUMPDEST PUSH1 0x1 DUP2 DUP2 SLOAD DUP2 LT PUSH2 0x6AB JUMPI PUSH1 0x0 DUP1 REVERT JUMPDEST SWAP1 PUSH1 0x0 MSTORE PUSH1 0x20 PUSH1 0x0 KECCAK256 SWAP1 PUSH1 0x5 MUL ADD PUSH1 0x0 SWAP2 POP SWAP1 POP DUP1 PUSH1 0x0 ADD PUSH1 0x0 SWAP1 SLOAD SWAP1 PUSH2 0x100 EXP SWAP1 DIV PUSH20 0xFFFFFFFFFFFFFFFFFFFFFFFFFFFFFFFFFFFFFFFF AND SWAP1 DUP1 PUSH1 0x1 ADD SLOAD SWAP1 DUP1 PUSH1 0x2 ADD SLOAD SWAP1 DUP1 PUSH1 0x3 ADD DUP1 SLOAD PUSH2 0x700 SWAP1 PUSH2 0xFC7 JUMP JUMPDEST DUP1 PUSH1 0x1F ADD PUSH1 0x20 DUP1 SWAP2 DIV MUL PUSH1 0x20 ADD PUSH1 0x40 MLOAD SWAP1 DUP2 ADD PUSH1 0x40 MSTORE DUP1 SWAP3 SWAP2 SWAP1 DUP2 DUP2 MSTORE PUSH1 0x20 ADD DUP3 DUP1 SLOAD PUSH2 0x72C SWAP1 PUSH2 0xFC7 JUMP JUMPDEST DUP1 ISZERO PUSH2 0x779 JUMPI DUP1 PUSH1 0x1F LT PUSH2 0x74E JUMPI PUSH2 0x100 DUP1 DUP4 SLOAD DIV MUL DUP4 MSTORE SWAP2 PUSH1 0x20 ADD SWAP2 PUSH2 0x779 JUMP JUMPDEST DUP3 ADD SWAP2 SWAP1 PUSH1 0x0 MSTORE PUSH1 0x20 PUSH1 0x0 KECCAK256 SWAP1 JUMPDEST DUP2 SLOAD DUP2 MSTORE SWAP1 PUSH1 0x1 ADD SWAP1 PUSH1 0x20 ADD DUP1 DUP4 GT PUSH2 0x75C JUMPI DUP3 SWAP1 SUB PUSH1 0x1F AND DUP3 ADD SWAP2 JUMPDEST POP POP POP POP POP SWAP1 DUP1 PUSH1 0x4 ADD PUSH1 0x0 SWAP1 SLOAD SWAP1 PUSH2 0x100 EXP SWAP1 DIV PUSH1 0xFF AND SWAP1 POP DUP6 JUMP JUMPDEST PUSH1 0x0 CALLVALUE GT PUSH2 0x7D9 JUMPI PUSH1 0x40 MLOAD PUSH32 0x8C379A000000000000000000000000000000000000000000000000000000000 DUP2 MSTORE PUSH1 0x4 ADD PUSH2 0x7D0 SWAP1 PUSH2 0x1445 JUMP JUMPDEST PUSH1 0x40 MLOAD DUP1 SWAP2 SUB SWAP1 REVERT JUMPDEST PUSH1 0x1 PUSH1 0x40 MLOAD DUP1 PUSH1 0xA0 ADD PUSH1 0x40 MSTORE DUP1 CALLER PUSH20 0xFFFFFFFFFFFFFFFFFFFFFFFFFFFFFFFFFFFFFFFF AND DUP2 MSTORE PUSH1 0x20 ADD CALLVALUE DUP2 MSTORE PUSH1 0x20 ADD TIMESTAMP DUP2 MSTORE PUSH1 0x20 ADD DUP5 DUP5 DUP1 DUP1 PUSH1 0x1F ADD PUSH1 0x20 DUP1 SWAP2 DIV MUL PUSH1 0x20 ADD PUSH1 0x40 MLOAD SWAP1 DUP2 ADD PUSH1 0x40 MSTORE DUP1 SWAP4 SWAP3 SWAP2 SWAP1 DUP2 DUP2 MSTORE PUSH1 0x20 ADD DUP4 DUP4 DUP1 DUP3 DUP5 CALLDATACOPY PUSH1 0x0 DUP2 DUP5 ADD MSTORE PUSH1 0x1F NOT PUSH1 0x1F DUP3 ADD AND SWAP1 POP DUP1 DUP4 ADD SWAP3 POP POP POP POP POP POP POP DUP2 MSTORE PUSH1 0x20 ADD PUSH1 0x0 PUSH1 0x1 DUP2 GT ISZERO PUSH2 0x86C JUMPI PUSH2 0x86B PUSH2 0xBAB JUMP JUMPDEST JUMPDEST DUP2 MSTORE POP SWAP1 DUP1 PUSH1 0x1 DUP2 SLOAD ADD DUP1 DUP3 SSTORE DUP1 SWAP2 POP POP PUSH1 0x1 SWAP1 SUB SWAP1 PUSH1 0x0 MSTORE PUSH1 0x20 PUSH1 0x0 KECCAK256 SWAP1 PUSH1 0x5 MUL ADD PUSH1 0x0 SWAP1 SWAP2 SWAP1 SWAP2 SWAP1 SWAP2 POP PUSH1 0x0 DUP3 ADD MLOAD DUP2 PUSH1 0x0 ADD PUSH1 0x0 PUSH2 0x100 EXP DUP2 SLOAD DUP2 PUSH20 0xFFFFFFFFFFFFFFFFFFFFFFFFFFFFFFFFFFFFFFFF MUL NOT AND SWAP1 DUP4 PUSH20 0xFFFFFFFFFFFFFFFFFFFFFFFFFFFFFFFFFFFFFFFF AND MUL OR SWAP1 SSTORE POP PUSH1 0x20 DUP3 ADD MLOAD DUP2 PUSH1 0x1 ADD SSTORE PUSH1 0x40 DUP3 ADD MLOAD DUP2 PUSH1 0x2 ADD SSTORE PUSH1 0x60 DUP3 ADD MLOAD DUP2 PUSH1 0x3 ADD SWAP1 DUP2 PUSH2 0x908 SWAP2 SWAP1 PUSH2 0x12AB JUMP JUMPDEST POP PUSH1 0x80 DUP3 ADD MLOAD DUP2 PUSH1 0x4 ADD PUSH1 0x0 PUSH2 0x100 EXP DUP2 SLOAD DUP2 PUSH1 0xFF MUL NOT AND SWAP1 DUP4 PUSH1 0x1 DUP2 GT ISZERO PUSH2 0x934 JUMPI PUSH2 0x933 PUSH2 0xBAB JUMP JUMPDEST JUMPDEST MUL OR SWAP1 SSTORE POP POP POP CALLVALUE PUSH1 0x2 PUSH1 0x0 CALLER PUSH20 0xFFFFFFFFFFFFFFFFFFFFFFFFFFFFFFFFFFFFFFFF AND PUSH20 0xFFFFFFFFFFFFFFFFFFFFFFFFFFFFFFFFFFFFFFFF AND DUP2 MSTORE PUSH1 0x20 ADD SWAP1 DUP2 MSTORE PUSH1 0x20 ADD PUSH1 0x0 KECCAK256 PUSH1 0x0 DUP3 DUP3 SLOAD PUSH2 0x98A SWAP2 SWAP1 PUSH2 0x1494 JUMP JUMPDEST SWAP3 POP POP DUP2 SWAP1 SSTORE POP CALLVALUE PUSH1 0x3 PUSH1 0x0 DUP3 DUP3 SLOAD PUSH2 0x9A3 SWAP2 SWAP1 PUSH2 0x1494 JUMP JUMPDEST SWAP3 POP POP DUP2 SWAP1 SSTORE POP CALLER PUSH20 0xFFFFFFFFFFFFFFFFFFFFFFFFFFFFFFFFFFFFFFFF AND PUSH32 0x2018DF2FD138B2916834021281DC1543D08A39C60F392B0BAC9D5D60030189F9 CALLVALUE DUP5 DUP5 TIMESTAMP PUSH1 0x40 MLOAD PUSH2 0x9F6 SWAP5 SWAP4 SWAP3 SWAP2 SWAP1 PUSH2 0x13B9 JUMP JUMPDEST PUSH1 0x40 MLOAD DUP1 SWAP2 SUB SWAP1 LOG2 POP POP JUMP JUMPDEST PUSH1 0x3 SLOAD DUP2 JUMP JUMPDEST PUSH1 0x0 DUP1 REVERT JUMPDEST PUSH1 0x0 DUP1 REVERT JUMPDEST PUSH1 0x0 PUSH20 0xFFFFFFFFFFFFFFFFFFFFFFFFFFFFFFFFFFFFFFFF DUP3 AND SWAP1 POP SWAP2 SWAP1 POP JUMP JUMPDEST PUSH1 0x0 PUSH2 0xA3D DUP3 PUSH2 0xA12 JUMP JUMPDEST SWAP1 POP SWAP2 SWAP1 POP JUMP JUMPDEST PUSH2 0xA4D DUP2 PUSH2 0xA32 JUMP JUMPDEST DUP2 EQ PUSH2 0xA58 JUMPI PUSH1 0x0 DUP1 REVERT JUMPDEST POP JUMP JUMPDEST PUSH1 0x0 DUP2 CALLDATALOAD SWAP1 POP PUSH2 0xA6A DUP2 PUSH2 0xA44 JUMP JUMPDEST SWAP3 SWAP2 POP POP JUMP JUMPDEST PUSH1 0x0 PUSH1 0x20 DUP3 DUP5 SUB SLT ISZERO PUSH2 0xA86 JUMPI PUSH2 0xA85 PUSH2 0xA08 JUMP JUMPDEST JUMPDEST PUSH1 0x0 PUSH2 0xA94 DUP5 DUP3 DUP6 ADD PUSH2 0xA5B JUMP JUMPDEST SWAP2 POP POP SWAP3 SWAP2 POP POP JUMP JUMPDEST PUSH1 0x0 DUP2 SWAP1 POP SWAP2 SWAP1 POP JUMP JUMPDEST PUSH2 0xAB0 DUP2 PUSH2 0xA9D JUMP JUMPDEST DUP3 MSTORE POP POP JUMP JUMPDEST PUSH1 0x0 PUSH1 0x20 DUP3 ADD SWAP1 POP PUSH2 0xACB PUSH1 0x0 DUP4 ADD DUP5 PUSH2 0xAA7 JUMP JUMPDEST SWAP3 SWAP2 POP POP JUMP JUMPDEST PUSH1 0x0 DUP2 MLOAD SWAP1 POP SWAP2 SWAP1 POP JUMP JUMPDEST PUSH1 0x0 DUP3 DUP3 MSTORE PUSH1 0x20 DUP3 ADD SWAP1 POP SWAP3 SWAP2 POP POP JUMP JUMPDEST PUSH1 0x0 DUP2 SWAP1 POP PUSH1 0x20 DUP3 ADD SWAP1 POP SWAP2 SWAP1 POP JUMP JUMPDEST PUSH2 0xB06 DUP2 PUSH2 0xA32 JUMP JUMPDEST DUP3 MSTORE POP POP JUMP JUMPDEST PUSH2 0xB15 DUP2 PUSH2 0xA9D JUMP JUMPDEST DUP3 MSTORE POP POP JUMP JUMPDEST PUSH1 0x0 DUP2 MLOAD SWAP1 POP SWAP2 SWAP1 POP JUMP JUMPDEST PUSH1 0x0 DUP3 DUP3 MSTORE PUSH1 0x20 DUP3 ADD SWAP1 POP SWAP3 SWAP2 POP POP JUMP JUMPDEST PUSH1 0x0 JUMPDEST DUP4 DUP2 LT ISZERO PUSH2 0xB55 JUMPI DUP1 DUP3 ADD MLOAD DUP2 DUP5 ADD MSTORE PUSH1 0x20 DUP2 ADD SWAP1 POP PUSH2 0xB3A JUMP JUMPDEST PUSH1 0x0 DUP5 DUP5 ADD MSTORE POP POP POP POP JUMP JUMPDEST PUSH1 0x0 PUSH1 0x1F NOT PUSH1 0x1F DUP4 ADD AND SWAP1 POP SWAP2 SWAP1 POP JUMP JUMPDEST PUSH1 0x0 PUSH2 0xB7D DUP3 PUSH2 0xB1B JUMP JUMPDEST PUSH2 0xB87 DUP2 DUP6 PUSH2 0xB26 JUMP JUMPDEST SWAP4 POP PUSH2 0xB97 DUP2 DUP6 PUSH1 0x20 DUP7 ADD PUSH2 0xB37 JUMP JUMPDEST PUSH2 0xBA0 DUP2 PUSH2 0xB61 JUMP JUMPDEST DUP5 ADD SWAP2 POP POP SWAP3 SWAP2 POP POP JUMP JUMPDEST PUSH32 0x4E487B7100000000000000000000000000000000000000000000000000000000 PUSH1 0x0 MSTORE PUSH1 0x21 PUSH1 0x4 MSTORE PUSH1 0x24 PUSH1 0x0 REVERT JUMPDEST PUSH1 0x2 DUP2 LT PUSH2 0xBEB JUMPI PUSH2 0xBEA PUSH2 0xBAB JUMP JUMPDEST JUMPDEST POP JUMP JUMPDEST PUSH1 0x0 DUP2 SWAP1 POP PUSH2 0xBFC DUP3 PUSH2 0xBDA JUMP JUMPDEST SWAP2 SWAP1 POP JUMP JUMPDEST PUSH1 0x0 PUSH2 0xC0C DUP3 PUSH2 0xBEE JUMP JUMPDEST SWAP1 POP SWAP2 SWAP1 POP JUMP JUMPDEST PUSH2 0xC1C DUP2 PUSH2 0xC01 JUMP JUMPDEST DUP3 MSTORE POP POP JUMP JUMPDEST PUSH1 0x0 PUSH1 0xA0 DUP4 ADD PUSH1 0x0 DUP4 ADD MLOAD PUSH2 0xC3A PUSH1 0x0 DUP7 ADD DUP3 PUSH2 0xAFD JUMP JUMPDEST POP PUSH1 0x20 DUP4 ADD MLOAD PUSH2 0xC4D PUSH1 0x20 DUP7 ADD DUP3 PUSH2 0xB0C JUMP JUMPDEST POP PUSH1 0x40 DUP4 ADD MLOAD PUSH2 0xC60 PUSH1 0x40 DUP7 ADD DUP3 PUSH2 0xB0C JUMP JUMPDEST POP PUSH1 0x60 DUP4 ADD MLOAD DUP5 DUP3 SUB PUSH1 0x60 DUP7 ADD MSTORE PUSH2 0xC78 DUP3 DUP3 PUSH2 0xB72 JUMP JUMPDEST SWAP2 POP POP PUSH1 0x80 DUP4 ADD MLOAD PUSH2 0xC8D PUSH1 0x80 DUP7 ADD DUP3 PUSH2 0xC13 JUMP JUMPDEST POP DUP1 SWAP2 POP POP SWAP3 SWAP2 POP POP JUMP JUMPDEST PUSH1 0x0 PUSH2 0xCA4 DUP4 DUP4 PUSH2 0xC22 JUMP JUMPDEST SWAP1 POP SWAP3 SWAP2 POP POP JUMP JUMPDEST PUSH1 0x0 PUSH1 0x20 DUP3 ADD SWAP1 POP SWAP2 SWAP1 POP JUMP JUMPDEST PUSH1 0x0 PUSH2 0xCC4 DUP3 PUSH2 0xAD1 JUMP JUMPDEST PUSH2 0xCCE DUP2 DUP6 PUSH2 0xADC JUMP JUMPDEST SWAP4 POP DUP4 PUSH1 0x20 DUP3 MUL DUP6 ADD PUSH2 0xCE0 DUP6 PUSH2 0xAED JUMP JUMPDEST DUP1 PUSH1 0x0 JUMPDEST DUP6 DUP2 LT ISZERO PUSH2 0xD1C JUMPI DUP5 DUP5 SUB DUP10 MSTORE DUP2 MLOAD PUSH2 0xCFD DUP6 DUP3 PUSH2 0xC98 JUMP JUMPDEST SWAP5 POP PUSH2 0xD08 DUP4 PUSH2 0xCAC JUMP JUMPDEST SWAP3 POP PUSH1 0x20 DUP11 ADD SWAP10 POP POP PUSH1 0x1 DUP2 ADD SWAP1 POP PUSH2 0xCE4 JUMP JUMPDEST POP DUP3 SWAP8 POP DUP8 SWAP6 POP POP POP POP POP POP SWAP3 SWAP2 POP POP JUMP JUMPDEST PUSH1 0x0 PUSH1 0x20 DUP3 ADD SWAP1 POP DUP2 DUP2 SUB PUSH1 0x0 DUP4 ADD MSTORE PUSH2 0xD48 DUP2 DUP5 PUSH2 0xCB9 JUMP JUMPDEST SWAP1 POP SWAP3 SWAP2 POP POP JUMP JUMPDEST PUSH2 0xD59 DUP2 PUSH2 0xA32 JUMP JUMPDEST DUP3 MSTORE POP POP JUMP JUMPDEST PUSH1 0x0 PUSH1 0x20 DUP3 ADD SWAP1 POP PUSH2 0xD74 PUSH1 0x0 DUP4 ADD DUP5 PUSH2 0xD50 JUMP JUMPDEST SWAP3 SWAP2 POP POP JUMP JUMPDEST PUSH1 0x0 DUP1 REVERT JUMPDEST PUSH1 0x0 DUP1 REVERT JUMPDEST PUSH1 0x0 DUP1 REVERT JUMPDEST PUSH1 0x0 DUP1 DUP4 PUSH1 0x1F DUP5 ADD SLT PUSH2 0xD9F JUMPI PUSH2 0xD9E PUSH2 0xD7A JUMP JUMPDEST JUMPDEST DUP3 CALLDATALOAD SWAP1 POP PUSH8 0xFFFFFFFFFFFFFFFF DUP2 GT ISZERO PUSH2 0xDBC JUMPI PUSH2 0xDBB PUSH2 0xD7F JUMP JUMPDEST JUMPDEST PUSH1 0x20 DUP4 ADD SWAP2 POP DUP4 PUSH1 0x1 DUP3 MUL DUP4 ADD GT ISZERO PUSH2 0xDD8 JUMPI PUSH2 0xDD7 PUSH2 0xD84 JUMP JUMPDEST JUMPDEST SWAP3 POP SWAP3 SWAP1 POP JUMP JUMPDEST PUSH2 0xDE8 DUP2 PUSH2 0xA9D JUMP JUMPDEST DUP2 EQ PUSH2 0xDF3 JUMPI PUSH1 0x0 DUP1 REVERT JUMPDEST POP JUMP JUMPDEST PUSH1 0x0 DUP2 CALLDATALOAD SWAP1 POP PUSH2 0xE05 DUP2 PUSH2 0xDDF JUMP JUMPDEST SWAP3 SWAP2 POP POP JUMP JUMPDEST PUSH1 0x0 DUP1 PUSH1 0x0 PUSH1 0x40 DUP5 DUP7 SUB SLT ISZERO PUSH2 0xE24 JUMPI PUSH2 0xE23 PUSH2 0xA08 JUMP JUMPDEST JUMPDEST PUSH1 0x0 DUP5 ADD CALLDATALOAD PUSH8 0xFFFFFFFFFFFFFFFF DUP2 GT ISZERO PUSH2 0xE42 JUMPI PUSH2 0xE41 PUSH2 0xA0D JUMP JUMPDEST JUMPDEST PUSH2 0xE4E DUP7 DUP3 DUP8 ADD PUSH2 0xD89 JUMP JUMPDEST SWAP4 POP SWAP4 POP POP PUSH1 0x20 PUSH2 0xE61 DUP7 DUP3 DUP8 ADD PUSH2 0xDF6 JUMP JUMPDEST SWAP2 POP POP SWAP3 POP SWAP3 POP SWAP3 JUMP JUMPDEST PUSH1 0x0 PUSH1 0x20 DUP3 DUP5 SUB SLT ISZERO PUSH2 0xE81 JUMPI PUSH2 0xE80 PUSH2 0xA08 JUMP JUMPDEST JUMPDEST PUSH1 0x0 PUSH2 0xE8F DUP5 DUP3 DUP6 ADD PUSH2 0xDF6 JUMP JUMPDEST SWAP2 POP POP SWAP3 SWAP2 POP POP JUMP JUMPDEST PUSH1 0x0 DUP3 DUP3 MSTORE PUSH1 0x20 DUP3 ADD SWAP1 POP SWAP3 SWAP2 POP POP JUMP JUMPDEST PUSH1 0x0 PUSH2 0xEB4 DUP3 PUSH2 0xB1B JUMP JUMPDEST PUSH2 0xEBE DUP2 DUP6 PUSH2 0xE98 JUMP JUMPDEST SWAP4 POP PUSH2 0xECE DUP2 DUP6 PUSH1 0x20 DUP7 ADD PUSH2 0xB37 JUMP JUMPDEST PUSH2 0xED7 DUP2 PUSH2 0xB61 JUMP JUMPDEST DUP5 ADD SWAP2 POP POP SWAP3 SWAP2 POP POP JUMP JUMPDEST PUSH2 0xEEB DUP2 PUSH2 0xC01 JUMP JUMPDEST DUP3 MSTORE POP POP JUMP JUMPDEST PUSH1 0x0 PUSH1 0xA0 DUP3 ADD SWAP1 POP PUSH2 0xF06 PUSH1 0x0 DUP4 ADD DUP9 PUSH2 0xD50 JUMP JUMPDEST PUSH2 0xF13 PUSH1 0x20 DUP4 ADD DUP8 PUSH2 0xAA7 JUMP JUMPDEST PUSH2 0xF20 PUSH1 0x40 DUP4 ADD DUP7 PUSH2 0xAA7 JUMP JUMPDEST DUP2 DUP2 SUB PUSH1 0x60 DUP4 ADD MSTORE PUSH2 0xF32 DUP2 DUP6 PUSH2 0xEA9 JUMP JUMPDEST SWAP1 POP PUSH2 0xF41 PUSH1 0x80 DUP4 ADD DUP5 PUSH2 0xEE2 JUMP JUMPDEST SWAP7 SWAP6 POP POP POP POP POP POP JUMP JUMPDEST PUSH1 0x0 DUP1 PUSH1 0x20 DUP4 DUP6 SUB SLT ISZERO PUSH2 0xF62 JUMPI PUSH2 0xF61 PUSH2 0xA08 JUMP JUMPDEST JUMPDEST PUSH1 0x0 DUP4 ADD CALLDATALOAD PUSH8 0xFFFFFFFFFFFFFFFF DUP2 GT ISZERO PUSH2 0xF80 JUMPI PUSH2 0xF7F PUSH2 0xA0D JUMP JUMPDEST JUMPDEST PUSH2 0xF8C DUP6 DUP3 DUP7 ADD PUSH2 0xD89 JUMP JUMPDEST SWAP3 POP SWAP3 POP POP SWAP3 POP SWAP3 SWAP1 POP JUMP JUMPDEST PUSH32 0x4E487B7100000000000000000000000000000000000000000000000000000000 PUSH1 0x0 MSTORE PUSH1 0x22 PUSH1 0x4 MSTORE PUSH1 0x24 PUSH1 0x0 REVERT JUMPDEST PUSH1 0x0 PUSH1 0x2 DUP3 DIV SWAP1 POP PUSH1 0x1 DUP3 AND DUP1 PUSH2 0xFDF JUMPI PUSH1 0x7F DUP3 AND SWAP2 POP JUMPDEST PUSH1 0x20 DUP3 LT DUP2 SUB PUSH2 0xFF2 JUMPI PUSH2 0xFF1 PUSH2 0xF98 JUMP JUMPDEST JUMPDEST POP SWAP2 SWAP1 POP JUMP JUMPDEST PUSH32 0x4F6E6C79204E474F2F6F776E65722063616E207370656E640000000000000000 PUSH1 0x0 DUP3 ADD MSTORE POP JUMP JUMPDEST PUSH1 0x0 PUSH2 0x102E PUSH1 0x18 DUP4 PUSH2 0xE98 JUMP JUMPDEST SWAP2 POP PUSH2 0x1039 DUP3 PUSH2 0xFF8 JUMP JUMPDEST PUSH1 0x20 DUP3 ADD SWAP1 POP SWAP2 SWAP1 POP JUMP JUMPDEST PUSH1 0x0 PUSH1 0x20 DUP3 ADD SWAP1 POP DUP2 DUP2 SUB PUSH1 0x0 DUP4 ADD MSTORE PUSH2 0x105D DUP2 PUSH2 0x1021 JUMP JUMPDEST SWAP1 POP SWAP2 SWAP1 POP JUMP JUMPDEST PUSH32 0x496E73756666696369656E742062616C616E6365000000000000000000000000 PUSH1 0x0 DUP3 ADD MSTORE POP JUMP JUMPDEST PUSH1 0x0 PUSH2 0x109A PUSH1 0x14 DUP4 PUSH2 0xE98 JUMP JUMPDEST SWAP2 POP PUSH2 0x10A5 DUP3 PUSH2 0x1064 JUMP JUMPDEST PUSH1 0x20 DUP3 ADD SWAP1 POP SWAP2 SWAP1 POP JUMP JUMPDEST PUSH1 0x0 PUSH1 0x20 DUP3 ADD SWAP1 POP DUP2 DUP2 SUB PUSH1 0x0 DUP4 ADD MSTORE PUSH2 0x10C9 DUP2 PUSH2 0x108D JUMP JUMPDEST SWAP1 POP SWAP2 SWAP1 POP JUMP JUMPDEST PUSH32 0x4E487B7100000000000000000000000000000000000000000000000000000000 PUSH1 0x0 MSTORE PUSH1 0x41 PUSH1 0x4 MSTORE PUSH1 0x24 PUSH1 0x0 REVERT JUMPDEST PUSH1 0x0 DUP2 SWAP1 POP DUP2 PUSH1 0x0 MSTORE PUSH1 0x20 PUSH1 0x0 KECCAK256 SWAP1 POP SWAP2 SWAP1 POP JUMP JUMPDEST PUSH1 0x0 PUSH1 0x20 PUSH1 0x1F DUP4 ADD DIV SWAP1 POP SWAP2 SWAP1 POP JUMP JUMPDEST PUSH1 0x0 DUP3 DUP3 SHL SWAP1 POP SWAP3 SWAP2 POP POP JUMP JUMPDEST PUSH1 0x0 PUSH1 0x8 DUP4 MUL PUSH2 0x1161 PUSH32 0xFFFFFFFFFFFFFFFFFFFFFFFFFFFFFFFFFFFFFFFFFFFFFFFFFFFFFFFFFFFFFFFF DUP3 PUSH2 0x1124 JUMP JUMPDEST PUSH2 0x116B DUP7 DUP4 PUSH2 0x1124 JUMP JUMPDEST SWAP6 POP DUP1 NOT DUP5 AND SWAP4 POP DUP1 DUP7 AND DUP5 OR SWAP3 POP POP POP SWAP4 SWAP3 POP POP POP JUMP JUMPDEST PUSH1 0x0 DUP2 SWAP1 POP SWAP2 SWAP1 POP JUMP JUMPDEST PUSH1 0x0 PUSH2 0x11A8 PUSH2 0x11A3 PUSH2 0x119E DUP5 PUSH2 0xA9D JUMP JUMPDEST PUSH2 0x1183 JUMP JUMPDEST PUSH2 0xA9D JUMP JUMPDEST SWAP1 POP SWAP2 SWAP1 POP JUMP JUMPDEST PUSH1 0x0 DUP2 SWAP1 POP SWAP2 SWAP1 POP JUMP JUMPDEST PUSH2 0x11C2 DUP4 PUSH2 0x118D JUMP JUMPDEST PUSH2 0x11D6 PUSH2 0x11CE DUP3 PUSH2 0x11AF JUMP JUMPDEST DUP5 DUP5 SLOAD PUSH2 0x1131 JUMP JUMPDEST DUP3 SSTORE POP POP POP POP JUMP JUMPDEST PUSH1 0x0 SWAP1 JUMP JUMPDEST PUSH2 0x11EB PUSH2 0x11DE JUMP JUMPDEST PUSH2 0x11F6 DUP2 DUP5 DUP5 PUSH2 0x11B9 JUMP JUMPDEST POP POP POP JUMP JUMPDEST JUMPDEST DUP2 DUP2 LT ISZERO PUSH2 0x121A JUMPI PUSH2 0x120F PUSH1 0x0 DUP3 PUSH2 0x11E3 JUMP JUMPDEST PUSH1 0x1 DUP2 ADD SWAP1 POP PUSH2 0x11FC JUMP JUMPDEST POP POP JUMP JUMPDEST PUSH1 0x1F DUP3 GT ISZERO PUSH2 0x125F JUMPI PUSH2 0x1230 DUP2 PUSH2 0x10FF JUMP JUMPDEST PUSH2 0x1239 DUP5 PUSH2 0x1114 JUMP JUMPDEST DUP2 ADD PUSH1 0x20 DUP6 LT ISZERO PUSH2 0x1248 JUMPI DUP2 SWAP1 POP JUMPDEST PUSH2 0x125C PUSH2 0x1254 DUP6 PUSH2 0x1114 JUMP JUMPDEST DUP4 ADD DUP3 PUSH2 0x11FB JUMP JUMPDEST POP POP JUMPDEST POP POP POP JUMP JUMPDEST PUSH1 0x0 DUP3 DUP3 SHR SWAP1 POP SWAP3 SWAP2 POP POP JUMP JUMPDEST PUSH1 0x0 PUSH2 0x1282 PUSH1 0x0 NOT DUP5 PUSH1 0x8 MUL PUSH2 0x1264 JUMP JUMPDEST NOT DUP1 DUP4 AND SWAP2 POP POP SWAP3 SWAP2 POP POP JUMP JUMPDEST PUSH1 0x0 PUSH2 0x129B DUP4 DUP4 PUSH2 0x1271 JUMP JUMPDEST SWAP2 POP DUP3 PUSH1 0x2 MUL DUP3 OR SWAP1 POP SWAP3 SWAP2 POP POP JUMP JUMPDEST PUSH2 0x12B4 DUP3 PUSH2 0xB1B JUMP JUMPDEST PUSH8 0xFFFFFFFFFFFFFFFF DUP2 GT ISZERO PUSH2 0x12CD JUMPI PUSH2 0x12CC PUSH2 0x10D0 JUMP JUMPDEST JUMPDEST PUSH2 0x12D7 DUP3 SLOAD PUSH2 0xFC7 JUMP JUMPDEST PUSH2 0x12E2 DUP3 DUP3 DUP6 PUSH2 0x121E JUMP JUMPDEST PUSH1 0x0 PUSH1 0x20 SWAP1 POP PUSH1 0x1F DUP4 GT PUSH1 0x1 DUP2 EQ PUSH2 0x1315 JUMPI PUSH1 0x0 DUP5 ISZERO PUSH2 0x1303 JUMPI DUP3 DUP8 ADD MLOAD SWAP1 POP JUMPDEST PUSH2 0x130D DUP6 DUP3 PUSH2 0x128F JUMP JUMPDEST DUP7 SSTORE POP PUSH2 0x1375 JUMP JUMPDEST PUSH1 0x1F NOT DUP5 AND PUSH2 0x1323 DUP7 PUSH2 0x10FF JUMP JUMPDEST PUSH1 0x0 JUMPDEST DUP3 DUP2 LT ISZERO PUSH2 0x134B JUMPI DUP5 DUP10 ADD MLOAD DUP3 SSTORE PUSH1 0x1 DUP3 ADD SWAP2 POP PUSH1 0x20 DUP6 ADD SWAP5 POP PUSH1 0x20 DUP2 ADD SWAP1 POP PUSH2 0x1326 JUMP JUMPDEST DUP7 DUP4 LT ISZERO PUSH2 0x1368 JUMPI DUP5 DUP10 ADD MLOAD PUSH2 0x1364 PUSH1 0x1F DUP10 AND DUP3 PUSH2 0x1271 JUMP JUMPDEST DUP4 SSTORE POP JUMPDEST PUSH1 0x1 PUSH1 0x2 DUP9 MUL ADD DUP9 SSTORE POP POP POP JUMPDEST POP POP POP POP POP POP JUMP JUMPDEST DUP3 DUP2 DUP4 CALLDATACOPY PUSH1 0x0 DUP4 DUP4 ADD MSTORE POP POP POP JUMP JUMPDEST PUSH1 0x0 PUSH2 0x1398 DUP4 DUP6 PUSH2 0xE98 JUMP JUMPDEST SWAP4 POP PUSH2 0x13A5 DUP4 DUP6 DUP5 PUSH2 0x137D JUMP JUMPDEST PUSH2 0x13AE DUP4 PUSH2 0xB61 JUMP JUMPDEST DUP5 ADD SWAP1 POP SWAP4 SWAP3 POP POP POP JUMP JUMPDEST PUSH1 0x0 PUSH1 0x60 DUP3 ADD SWAP1 POP PUSH2 0x13CE PUSH1 0x0 DUP4 ADD DUP8 PUSH2 0xAA7 JUMP JUMPDEST DUP2 DUP2 SUB PUSH1 0x20 DUP4 ADD MSTORE PUSH2 0x13E1 DUP2 DUP6 DUP8 PUSH2 0x138C JUMP JUMPDEST SWAP1 POP PUSH2 0x13F0 PUSH1 0x40 DUP4 ADD DUP5 PUSH2 0xAA7 JUMP JUMPDEST SWAP6 SWAP5 POP POP POP POP POP JUMP JUMPDEST PUSH32 0x446F6E6174696F6E206D7573742062652067726561746572207468616E203000 PUSH1 0x0 DUP3 ADD MSTORE POP JUMP JUMPDEST PUSH1 0x0 PUSH2 0x142F PUSH1 0x1F DUP4 PUSH2 0xE98 JUMP JUMPDEST SWAP2 POP PUSH2 0x143A DUP3 PUSH2 0x13F9 JUMP JUMPDEST PUSH1 0x20 DUP3 ADD SWAP1 POP SWAP2 SWAP1 POP JUMP JUMPDEST PUSH1 0x0 PUSH1 0x20 DUP3 ADD SWAP1 POP DUP2 DUP2 SUB PUSH1 0x0 DUP4 ADD MSTORE PUSH2 0x145E DUP2 PUSH2 0x1422 JUMP JUMPDEST SWAP1 POP SWAP2 SWAP1 POP JUMP JUMPDEST PUSH32 0x4E487B7100000000000000000000000000000000000000000000000000000000 PUSH1 0x0 MSTORE PUSH1 0x11 PUSH1 0x4 MSTORE PUSH1 0x24 PUSH1 0x0 REVERT JUMPDEST PUSH1 0x0 PUSH2 0x149F DUP3 PUSH2 0xA9D JUMP JUMPDEST SWAP2 POP PUSH2 0x14AA DUP4 PUSH2 0xA9D JUMP JUMPDEST SWAP3 POP DUP3 DUP3 ADD SWAP1 POP DUP1 DUP3 GT ISZERO PUSH2 0x14C2 JUMPI PUSH2 0x14C1 PUSH2 0x1465 JUMP JUMPDEST JUMPDEST SWAP3 SWAP2 POP POP JUMP INVALID LOG2 PUSH5 0x6970667358 0x22 SLT KECCAK256 SAR PUSH27 0xF1A63DEC6800DAC8000A9741E01E7AAB9D4D42413E7E6A24E5063D DUP7 0x1F 0xCA PUSH5 0x736F6C6343 STOP ADDMOD SHR STOP CALLER "},"methodIdentifiers":{"donate(string)":"b5aebc80","donorTotal(address)":"32e1e4d5","getContractBalance()":"6f9fb98a","getTransactions()":"83920e90","owner()":"8da5cb5b","spend(string,uint256)":"98d87b84","totalDonations()":"de2ed893","transactions(uint256)":"9ace38c2"}}}}}